:020000040800F2
:1000000000100020692C0008B92C0008B92C000849
:1000100000000000000000000000000000000000E0
:10002000000000000000000000000000B92C0008E3
:100030000000000000000000B92C0008B92C0008E6
:10004000B92C000800000000B92C0008B92C0008E9
:10005000B92C00089D290008B92C0008B92C00080B
:1000600000000000B92C0008B92C0008B92C0008C9
:10007000B92C0008B92C0008B92C000800000000B9
:10008000B92C00080000000000000000B92C000896
:10009000000000000D2B0008292C0008B92C0008D6
:1000A00000000000B92C000800000000B92C000876
:1000B0000000000000000000000000000000000040
:1000C00010B5064C2378002B07D1054B002B02D02E
:1000D000044800E000BF0123237010BD3001002060
:1000E000000000001C2D0008084B10B5002B03D0A9
:1000F0000749084800E000BF07480368002B00D10B
:1001000010BD064B002BFBD09847F9E7000000001C
:10011000340100201C2D00083001002000000000E8
:10012000002243088B4274D303098B425FD3030A36
:100130008B4244D3030B8B4228D3030C8B420DD349
:10014000FF22090212BA030C8B4202D312120902D7
:1001500065D0030B8B4219D300E0090AC30B8B4215
:1001600001D3CB03C01A5241830B8B4201D38B03C3
:10017000C01A5241430B8B4201D34B03C01A524168
:10018000030B8B4201D30B03C01A5241C30A8B42AB
:1001900001D3CB02C01A5241830A8B4201D38B0296
:1001A000C01A5241430A8B4201D34B02C01A52413A
:1001B000030A8B4201D30B02C01A5241CDD2C309AC
:1001C0008B4201D3CB01C01A524183098B4201D328
:1001D0008B01C01A524143098B4201D34B01C01A13
:1001E000524103098B4201D30B01C01A5241C3088B
:1001F0008B4201D3CB00C01A524183088B4201D3FA
:100200008B00C01A524143088B4201D34B00C01AE5
:100210005241411A00D20146524110467047FFE751
:1002200001B5002000F006F802BDC0460029F7D055
:1002300076E770477047C0469E2110B5C905041C7B
:1002400000F046FB002803D1201C00F0A7FA10BDE7
:100250009E21201CC90500F01BF900F09FFA8023A5
:100260001B069C466044F2E7F0B557464E464546AD
:100270004300E0B446028846760A1F0EC40F002FE2
:1002800047D0FF2F25D0002380259A469946F600B7
:10029000ED042E437F3F434642465D02D20F5B0092
:1002A0006D0A1B0E904640D0FF2B39D080220020D3
:1002B000ED00D20415437F3BFB1842465746591CBC
:1002C00062408C4607430F2F5CD86F49BF00C95965
:1002D0008F46002E45D108239A46063B9946DAE719
:1002E000424602282DD0032800D1C3E0012800D0C7
:1002F000A2E0002500260240D4B27602ED05760A7F
:100300002E43E407264330001CBC90469946A24683
:10031000F0BD002E1AD104239A46033B9946BAE752
:100320002A00511E8A41901CC6E70120002DC3D02F
:10033000280000F0D7FA431F76309D40434200204A
:10034000BAE70124FF2514400026D6E7300000F06C
:10035000C9FA431F9E400023763047429A46994689
:1003600099E70C239A46093B994694E78026002496
:10037000F603FF25C1E735004846B2E73500220005
:100380004846AEE72904090C0800370C3604360C41
:100390002C0C7943704367437443060C6418361978
:1003A000B14203D980214902884647440004000C29
:1003B000310409188D01681E8541890E2943350CC9
:1003C000ED19AD010D43290104D5012369081D4034
:1003D00063460D4319007F31002925DD680704D0ED
:1003E0000F202840042800D00435280103D52749D0
:1003F00080330D401900FE29A3DC0124AD016E0AF3
:100400001440CDB279E78020C003064207D00542F0
:1004100005D128434602760A4446FF256DE7064388
:100420007602760AFF2568E70124611A1B2905DD9B
:1004300014400025002660E76346CBE72E0020230A
:10044000CE40591A8D406B1E9D412E43730704D038
:100450000F233340042B00D00436730104D501244C
:1004600001251440002648E70124B601760A14400D
:10047000002542E780260124F6032E437602760A01
:100480001440FF2539E7C046342D0008FFFFFFF771
:10049000F8B54A024E0043024400240EC50F9B09E2
:1004A000360EC90F9209FF2E00D183E00120414092
:1004B000A01BA9425CD0002800DC95E0002E1CD1D6
:1004C000002A00D081E05A0704D00F221A40042AE3
:1004D00000D004335A013BD50134FF2C00D191E008
:1004E00001209B015B0AE4B205405B02E4055B0A64
:1004F000ED0723432B431800F8BDFF2CE3D08021E8
:10050000C9040A431B2800DD90E016002021C640E4
:10051000081A8240511E8A4132439B1A5A0115D54E
:100520009B019E09300000F0DDF9053886408442C9
:100530006CDC041B330020200134E340041BA64084
:10054000721E964100243343BDE70D005A07BCD10B
:10055000DF0801231D40FF2C33D1002F00D190E094
:100560008022D20313003B435B025B0AFF24BCE7FB
:1005700000284FDD002E2ED0FF2CA4D08025ED04C6
:100580002A431B2800DD97E016002025C640281AC4
:100590008240501E824132439B185A01D5D5013406
:1005A000FF2C6DD001227B481A405B0803401343A7
:1005B0000D0088E7002A00D07AE777E7031EC5D14F
:1005C00000257B025B0AE4B28FE701380028A4D043
:1005D000FF2C97D177E7002A00D174E70138002873
:1005E000DAD0FF2CCDD16EE7002821D1601CC0B23B
:1005F000012858DD80279E1AFF0437402FD0D61AD5
:100600000D008FE701231D4000236EE7624B241A83
:10061000334058E7002851D1601CC6B2012E33DDAB
:10062000FF282DD09B185B0804004CE7012274E7DB
:10063000002C1AD0FF2E1FD08024E4044042234314
:100640001B2800DD96E01D002024C540201A8340B1
:10065000581E83412B43D31A34000D005EE7002E51
:1006600000D05FE700250024ABE7002B44D0C04357
:100670000028F0D0FF2EE3D11300FF240D0022E765
:100680000D00FF24002330E7002C5DD1002B7DD02E
:10069000002A00D117E79B185A0100D456E73E4ABA
:1006A000040013400FE7002C1ED1002B2FD1002A8D
:1006B00065D013000D0006E701226DE7002C1FD165
:1006C000002B59D0C04300280BD0FF2E4FD01B2841
:1006D0005EDC1D002024C540201A8340581E834143
:1006E0002B439B18340058E7002B1CD1002A49D01B
:1006F00013000D00FF24E6E6130034000D00E2E6CF
:10070000FF2E34D08024E40440422343DFE7002A54
:1007100000D1D8E68027981AFF04074000D14DE7A2
:10072000D31A0D00CFE6FF24002A00D1CBE68020AB
:10073000DB08C003034204D0D208024201D11300F7
:100740000D00DB00FF24BEE6002B10D0FF24002AA2
:1007500000D1B8E68020DB08C003034203D0D208F2
:10076000024200D11300DB000D00FF24ABE61300B2
:10077000FF24A8E601236EE713003400A3E6002758
:1007800000251EE780270025FF03E9E613009AE60F
:100790000123A6E7FFFFFF7DFFFFFFFB4302590A8E
:1007A0004300C20F1B0E00207E2B0EDD9D2B0DDCA7
:1007B000802000040143952B0BDC9620C31AD940FE
:1007C0000B005842002A00D118007047034BD01884
:1007D000FBE7963B99400B00F3E7C046FFFFFF7F26
:1007E00070B5002830D0C317C5185D40C40F28006D
:1007F00000F078F89E231B1A962B0DDC9622D21A55
:1008000095406A02520AD8B25202C005520AE40761
:1008100002432243100070BD992B19DC9922D21A91
:100820009540124A2A40690704D00F210D40042D3B
:1008300000D00432510103D50C4B1A409F231B1AE0
:100840009201520AD8B2DFE7002400200022DBE741
:1008500005222E00121AB921D6402A00C91A8A4050
:10086000551EAA4135001543DBE7C046FFFFFFFBDD
:100870008446081C6146FFE71FB500F0BDF800285C
:1008800001D40021C8421FBD10B500F049F8404214
:10089000013010BD10B500F0AFF8002801DB0020DA
:1008A00010BD012010BDC04610B500F0A5F800280D
:1008B00001DD002010BD012010BDC04610B500F0C4
:1008C00057F8002801DC002010BD012010BDC046F3
:1008D00010B500F04DF8002801DA002010BD01200D
:1008E00010BDC0461C2101231B04984201D3000CFB
:1008F00010391B0A984201D3000A08391B09984293
:1009000001D30009043902A2105C40187047C046A8
:1009100004030202010101010000000000000000C8
:10092000430270B542004C005D0AC30F4802120E2C
:10093000460A240EC90FFF2A0FD0FF2C11D0012028
:10094000A24200D070BDB542FCD18B420DD0002A2E
:10095000F8D12800431E9841F4E70120002DF1D181
:10096000EBE70120002EEDD1E9E70020EAE7C046E1
:100970004302F0B542005D0AC30F4802440A480032
:10098000120E000EC90FFF2A1FD0FF2822D0002A06
:1009900009D16E426E4100280FD1002C0DD10020EC
:1009A000002D09D005E0002801D1002C01D08B4298
:1009B00013D0584201231843F0BD002EF7D048420F
:1009C0004141012049420843F6E7002DDDD00220D5
:1009D0004042F1E7002CDAD0F9E78242E9DC04DB9F
:1009E000A542E6D80020A542E6D258424341012064
:1009F0005B421843E0E7C0464302F0B542004C00BA
:100A00005E0AC30F4802120E450A240EC90FFF2AC0
:100A100017D0FF2C19D0002A0BD170427041002C46
:100A200017D0002807D048424141012049420843DD
:100A3000F0BD002C13D08B4214D058420123184330
:100A4000F6E70220002EF3D1E3E70220002DEFD1DC
:100A5000E1E7002DE5D10020002EE9D0EDE7002DE3
:100A6000E9D1EAE7A242E8DC04DBAE42E5D80020A7
:100A7000AE42DDD25842434101205B421843D7E7E2
:100A800082B000230193394A1368802149020B4345
:100A90001360019B01330193344B1B689B0304D407
:100AA000019AA023DB009A42F3D1304B1B689B03D1
:100AB00029D511222E4B1A602C4B5A685A605A685D
:100AC0005A6059682B4A0A405A605A68AC21890317
:100AD0000A435A601A68802149040A431A60234B6A
:100AE0001B689B01FBD5214B5A6803218A435A603E
:100AF000596802220A435A601C4B5B680C2213405F
:100B0000082BF9D130E0194B19681B4A0A401A60CA
:100B1000196801220A431A601121154A11605A68A6
:100B20005A605A685A605968144A0A405A605A68AA
:100B3000A02189030A435A601A68802149040A43A4
:100B40001A600A4B1B689B01FBD5084B5A680321AE
:100B50008A435A60596802220A435A60034B5B6811
:100B60000C221340082BF9D102B07047001002404C
:100B700000200240FFFFC0FFFFFFFEFFFFFFC2FF9C
:100B800010B5124B1A6801210A431A605868104ABE
:100B900002405A6018680F4A02401A6018680E4AEC
:100BA00002401A6058680D4A02405A60DA6A0F2003
:100BB0008243DA62186B0A4A02401A635A6B8A430C
:100BC0005A6300229A60FFF75BFF10BD00100240DD
:100BD0000CB8FFF8FFFFF6FEFFFFFBFFFFFFC0FFB3
:100BE000ACFEFFFF10B5074B984209D18024A4004A
:100BF0000121200000F028FB0021200000F024FB50
:100C000010BDC0460024014010B5C468084B1C400C
:100C10000A7952030B681A438B681343CA6813435B
:100C20000A6913434A6913432343C36010BDC04696
:100C300003D2FFFF0023036003718360C36003617D
:100C400043617047002904D0826801231343836005
:100C500003E082680223134383607047836A194369
:100C6000816242617047C046836880221206134346
:100C7000836000228368DB0FDB070132F021090269
:100C80008A4201D0002BF5D18368002B01DB006C78
:100C900000E000207047C04682680423134383604D
:100CA0007047C046002904D0C26801231343C360C3
:100CB00003E0C36801229343C3607047C368022204
:100CC0009343C360C3681943C1607047CB0103D528
:100CD0008268054B134000E00368194201D00120EF
:100CE00000E000207047C046FFFFFFFE02681C4B7B
:100CF000134003600023036043608360C360194BAB
:100D0000984205D1184A51680F230B43536025E0E0
:100D1000164B984205D1144A5168F0230B43536097
:100D20001CE0134B984206D10F4A5368F021090189
:100D30000B43536012E00F4B984206D10A4A5368A6
:100D4000F02109020B43536008E00B4B984205D198
:100D5000054A5368F02109030B4353607047C046AE
:100D6000FEFF000008000240000002401C0002409C
:100D700030000240440002405800024010B50468B0
:100D80000D4B1C408B680A6A13430A6913434A6976
:100D900013438A691343CA6913434A6A13438A6A2D
:100DA0001A43230013430360CB6843600B688360DE
:100DB0004B68C36010BDC0460F80FFFF002904D000
:100DC000026801231343036003E00268014B1340F0
:100DD00003607047FEFF0000034B1B68184201D000
:100DE000012000E0002070470000024010B5837928
:100DF000002B2CD01A4B1A6801688A431A605A6873
:100E000001688A435A6002799C466244116804680A
:100E1000214311609A6801688A439A60DA68016820
:100E20008A43DA604379102B09D163469A680168D6
:100E30000A439A60D96802680A43DA600FE0084AF8
:100E400094466344196802680A431A6007E003790C
:100E5000034A944663441A6801688A431A6010BDC5
:100E600000040140064A136803405269024203D05D
:100E7000002B03D1002002E0002000E00120704799
:100E800000040140044B1B691B0604D5024B034AB6
:100E90005A60034A5A6070470020024023016745A8
:100EA000AB89EFCD024A116980230B431361704770
:100EB00000200240014BD8607047C046002002402D
:100EC000094BDB68DB0709D4074BDB68DB0607D47B
:100ED000054BDB685B0705D5032004E0012002E039
:100EE000022000E0042070470020024010B50400FA
:100EF000FFF7E6FF02E0FFF7E3FF013C012801D125
:100F0000002CF8D1002C00D1052010BD70B50500D3
:100F1000B0200003FFF7EAFF042810D1084C236932
:100F20000226334323616561226940231343236111
:100F3000B0200003FFF7DAFF2369B343236170BDDC
:100F40000020024030B583B005000C00002301935F
:100F5000B0200003FFF7CAFF042820D1114A11690D
:100F600001230B431361A3B22B80B0200003FFF7D2
:100F7000BDFF04280ED102350195019B240C1C8075
:100F8000B0200003FFF7B2FF064A136901218B432B
:100F9000136104E0034A136901218B43136103B019
:100FA00030BDC0460020024070B500223AE0012367
:100FB00093400C681C40A34233D10B79013BDBB258
:100FC000012B17D8836855000324AC40A3438360EA
:100FD00084684B79AB402343836083881404240CDA
:100FE0000125A540AB43838085888B79A3402B43A3
:100FF0009BB283800368550003242600AE40B343B0
:10100000036006680B79AB4033430360C368160482
:10101000F60BB440A343C360C468CB79AB40234311
:10102000C36001320F2AC2D970BDC04630B5072354
:101030000B409B009A40C908083189000C580F25C5
:101040009D40AC430C500B581A430A5030BDC0466B
:1010500070B58378002B19D001788C08104DC034FE
:10106000A400665903231940C900FC331A008A40C2
:1010700096434278920113408B4033436351037887
:101080001F221A40012393402B6007E003781F22A0
:101090001A4001239340802201498B5070BDC04605
:1010A00000E100E0094B5968094A0A405A60596852
:1010B0000204120C0A435A60196B064A0A401A636A
:1010C0001A6B000C104318637047C04600100240B2
:1010D000FFBFFFFFFFFEFFFF70B504003F4B5B68E3
:1010E0000C221340042B06D0082B07D0002B1DD157
:1010F0003B4B03601CE03A4B036019E0374B5D68E3
:101100005B68AD0C0F2005400235DB0303D4354886
:10111000454325600CE0314BDB6A0F21194001315A
:101120002F48FEF7FDFF4543256001E02C4B03608F
:101130002A494B681B090F2213402B48C35CDBB2C2
:1011400025682A00DA4062604B681B0A0726334094
:10115000C35CDBB2DA40A2600B6BDB0502D4234B2D
:10116000E36008E01D4B5B685B0402D45308E36056
:1011700001E09308E360194B1B6B5B0602D41C4B28
:10118000236102E080231B022361144B1B6BDB06EF
:1011900002D4134B636100E06561104B1B6B9B072E
:1011A00001D1A26119E00D4B1B6B03221340012BEF
:1011B00001D1A56111E0094B1B6B03221340022BE7
:1011C00003D180231B02A36107E0044B1B6B0322A6
:1011D0001340032B01D1024BA36170BD00100240EC
:1011E00000127A0000093D0000000020809FD50019
:1011F00012800000002904D0044B5A691043586142
:1012000003E0024A53698343536170470010024070
:10121000002904D0044B9A691043986103E0024A04
:10122000936983439361704700100240002904D002
:10123000044BDA691043D86103E0024AD36983435F
:10124000D361704700100240002904D0044BDA68D3
:101250001043D86003E0024AD3688343D3607047E9
:1012600000100240002904D0044B1A691043186191
:1012700003E0024A13698343136170470010024080
:1012800030B503230B409B000F259D408908054A7C
:10129000023189008C58AC438C508C5898402043C4
:1012A000885030BD0000014010B5354B98420AD13E
:1012B0008024240101212000FFF7C6FF0021200027
:1012C000FFF7C2FF5BE08023DB05984208D10121D4
:1012D0000120FFF7C7FF00210120FFF7C3FF4EE009
:1012E000284B984208D101210220FFF7BBFF0021C3
:1012F0000220FFF7B7FF42E0234B984208D10121BB
:101300001020FFF7AFFF00211020FFF7ABFF36E002
:101310001E4B98420AD18024640001212000FFF76F
:10132000A1FF00212000FFF79DFF28E0184B984205
:101330000AD18024640201212000FFF785FF0021EB
:101340002000FFF781FF1AE0124B98420AD1802457
:10135000A40201212000FFF777FF00212000FFF702
:1013600073FF0CE00C4B984209D18024E402012168
:101370002000FFF769FF00212000FFF765FF10BD87
:10138000002C0140000400400010004000200040FC
:1013900000400140004401400048014003889BB2E6
:1013A000154A904206D08022D205904202D0134ABC
:1013B000904203D1702293434A881343104A9042CB
:1013C00004D0104A13400A8913439BB203804B6830
:1013D000C3620B880385084B984208D00A4B984299
:1013E00005D00A4B984202D0094B984201D18B7A22
:1013F0000386012383827047002C014000040040D3
:1014000000100040FFFCFFFF00400140004401408D
:1014100000480140002905D00288802313439BB275
:10142000038003E003888022934303807047C04613
:10143000002905D00288012313439BB2038003E0F7
:1014400003880122934303807047C046002906D0D9
:101450004422815A054B0B439BB2835204E0442241
:10146000835A5B045B0C83527047C0460080FFFFC9
:1014700030B5038C012293430384038C828892B29B
:10148000048B7325AC430D882C430225AB438D8917
:101490002B434D882B43104DA84208D00F4DA84236
:1014A00005D00F4DA84202D00E4DA8420DD10825FF
:1014B000AB43CD892B430425AB438D882B430A4D89
:1014C0002A400D8A2A434D8A2A43828004838A68EF
:1014D0004263038430BDC046002C014000400140FF
:1014E0000044014000480140FFFCFFFF70B5038C41
:1014F000102293430384038C8688B6B2058B184A66
:1015000015400C882402A4B22543202293438C89E1
:101510002401A4B223431A004B881B019BB213433E
:10152000104A904216D180229343CC892401A2B262
:101530001343402293431A008B881B019BB2134331
:10154000094A16400A8A920092B216434A8A9200C9
:1015500092B21643868005838A688263038470BDD5
:10156000FF8CFFFF002C0140FFF3FFFF70B5028CE2
:101570001A4B13400384028C8588ADB2868B73238B
:101580009E430B881E43164B13408C892402A4B241
:1015900023431A004B881B029BB21343114A90420B
:1015A00015D1114A1340CA89120292B213430F4A4D
:1015B00013408A88120292B213430D4A15400A8AD8
:1015C000120192B215434A8A120192B215438580E4
:1015D00086838A68C263038470BDC046FFFEFFFF36
:1015E000FFFDFFFF002C0140FFF7FFFFFFFBFFFFA8
:1015F000FFCFFFFF70B5028C124B13400384068CA3
:101600008588ADB2848B104A14400A88120292B2C7
:1016100014430E4B33408A89120392B213434A8813
:10162000120392B213430A4A904205D1094A154067
:101630000A8A920192B21543858084838A68026483
:10164000038470BDFFEFFFFFFF8CFFFFFFDFFFFF95
:10165000002C0140FFBFFFFF038B08229343194377
:1016600001837047028B034B1A400B0299B211435E
:1016700001837047FFF7FFFF838B082293431943D1
:1016800081837047828B034B1A400B0299B211433E
:1016900081837047FFF7FFFF002A03D08389194336
:1016A000818102E083898B4383817047C94389B27A
:1016B00001827047F0B58BB004000D000368012271
:1016C000934303604268264B13408A681343436088
:1016D0000168244B19406B68EA6813432A691A436E
:1016E0000B001343036082681F4B13406A69134366
:1016F000836003A8FFF7F0FC1C4B9C4201D1099EBC
:1017000000E0059E23681B040CD576002B6801932E
:1017100019003000FEF704FD070001993000FEF7C4
:1017200085FD0AE02B68019319003000FEF7F8FCF4
:10173000070001993000FEF779FD2B685B0899429C
:1017400000D3013723681B0406D57B0807221A4003
:10175000074B3B401A431700BBB2A3810BB0F0BD4F
:10176000FFCFFFFFF3E9FFFFFFFCFFFF0038014061
:10177000F0FF0000002904D0026801231343036036
:1017800003E003680122934303607047002A03D0FB
:1017900043681943416002E043688B4343607047EC
:1017A00070B59024E4050825258500F009FEA561A3
:1017B00070BDC04670B50E009024E405082525854F
:1017C00000F0FEFD300000F0FBFDA56170BDC046DD
:1017D00010B500210020FFF7EDFF10BD70B590247B
:1017E000E4050825258540231843C0B200F0E8FD34
:1017F00000F00EFEA56170BDF8B505000F000822CF
:101800009023DB051A85452000F0DAFD002406E070
:101810006E1C00F0FDFD28700134E4B23500BC42BE
:10182000F6D308229023DB059A61F8BD70B5040059
:101830009025ED0508262E85062000F0C1FD200E1E
:1018400000F0BEFD200CC0B200F0BAFD200AC0B20C
:1018500000F0B6FDE0B200F0B3FDAE6170BDC04671
:1018600070B594B03948FFF71DFC0121802080003D
:10187000FFF7CEFC01210120FFF7BCFC12A90323D6
:101880000B710026CE71013312939020C005FFF733
:101890008BFB2F4C2000FFF7A5F90CAD2800FFF7BC
:1018A000C9F90C9601232B71AE602E616E6129007F
:1018B0002000FFF7A9F9072204212000FFF7CEF945
:1018C0002000FFF7D1F902212000FFF7F7F90121ED
:1018D0002000FFF7E7F901212000FFF7B3F91D49C8
:1018E0001B48FFF7F3F90028F9D01948FFF7D4F99E
:1018F000194C2000FFF7FAF9184B0193184B02938B
:10190000002303930122049205937F3206928032D2
:1019100007928022D200089220220992802292010E
:101920000A920B9301A92000FFF728FA0121200059
:10193000FFF744FA0220FFF74FFA0028FAD0084BCD
:101940001A88084B1A8014B070BDC04600400001D0
:101950000024014001000001080002404024014031
:101960006C0100206801002010B5054B1C8805495A
:1019700008880201131AE3189BB21B090B8010BDE3
:101980006C0100206801002000B583B000236A4686
:101990001371937103335371023BD371013300937D
:1019A00069469020C005FFF7FFFA03B000BDC046AE
:1019B00010B59023DB051B8A9B0709D4012000F09A
:1019C0000BF89023DB051B8A9B0703D4012002E060
:1019D000002000E0002010BD094B5843094B58601F
:1019E00000229A6001321A60064B1A68064B1340B7
:1019F000012BF9D0034B00221A609A607047C04651
:101A00007017000010E000E00100010070B5060052
:101A10000D003420FFF74EFA002405E0A0028019E3
:101A2000FFF774FA0134E4B2AC42F7D370BDC0469C
:101A300010B5FFF787FA04280AD09022D205918AC0
:101A40008023DB014B409382C820FFF7C5FFF4E7FA
:101A500010BDC04610B5012383F310880120FFF7A5
:101A6000BBFFFFF70FFA10BD10B5FFF71BFA0120FF
:101A7000FFF7B2FF002383F3108810BD10B5FFF706
:101A8000E9FF01210948FFF7C1FF002409E0A00098
:101A9000074BC158054B9C466044FFF7C9FF013412
:101AA000A4B2182CF3D9FFF7DFFF10BD007C0008AB
:101AB000A4010020F8B5224B1B78002B3FD19023C6
:101AC000DB051B8A9B073AD41E4A138801339BB25D
:101AD0001380642B0CD832E059001B4A895A1A0033
:101AE000203252001948821891800133DBB200E0A5
:101AF0000023072BF0D9164A144B1A64FFF7AAFFEC
:101B0000002411E09025ED058027FF01AF618026BC
:101B1000B6012E856420FFF75FFF2F85AE6164203C
:101B2000FFF75AFF0134E4B2092CEBD9FFF7A6FF07
:101B30000122034B1A7000F09DFE00F0C5FEF8BDB7
:101B40006E0100204C01002010000020A4010020A4
:101B50004F4A424B10B582B001236A4613710023ED
:101B6000937103335371013BD371C023DB010093A5
:101B70009024E40569462000FFF716FA8023DB0174
:101B8000238580239B01238502B010BD8022920112
:101B90009023DB051A850F4B1B785BB21A1D06D10B
:101BA0000D4BDB7B01335B000A4A137011E0002B05
:101BB0000CDDDA0705D48021C9019022D20591619C
:101BC00004E08021C9019022D2051185013B014A20
:101BD000137070474E010020A4010020F0B593B0AF
:101BE000012180200001FFF713FB01210220FFF7F4
:101BF0001DFB012180204000FFF718FB10AC0226DE
:101C00002671032363710027A771E671CA23DB00E5
:101C100010939025ED0521002800FFF7C5F91096D7
:101C2000784E21003000FFF7BFF90422042128007C
:101C3000FFF7FCF9012206212800FFF7F7F902223D
:101C40000A212800FFF7F2F9012201213000FFF7F5
:101C5000EDF90DAC6C4B0E932F2323802781678009
:101C600021006A48FFF79AFB694D21002800FFF721
:101C700095FBFA239B0063602780664E21003000AD
:101C8000FFF78CFB08AC602323805F3B6380A78158
:101C90000333A3800433E38167820A97210028007D
:101CA000FFF7E6FB08212800FFF7D6FC21002800FB
:101CB000FFF7A0FC08212800FFF7E4FC210030001A
:101CC000FFF7D6FB08213000FFF7C6FC524BDB7B49
:101CD000002B1BD1022209219020C005FFF7A6F995
:101CE0004A4C0DA92000FFF759FB08A92000FFF777
:101CF000FDFB08212000FFF7B5FC08A92000FFF735
:101D000035FC08212000FFF7B7FC51E00122092132
:101D10009020C005FFF78AF901218020C001FFF75C
:101D200077FA3E4B029380235B01039380239B0150
:101D300004938023DB000593002307930833069365
:101D4000374D02A92800FFF7B5FC01228021890246
:101D50002800FFF71BFD01AC1B23237002276770CF
:101D60000126A6702000FFF773F901212800FFF774
:101D700001FD2C4B0E932C23FF330A93183BFF3BA2
:101D800023706770A6702000FFF762F9012201211D
:101D90002548FFF781FC1D4C0DA92000FFF7FEFA36
:101DA00008A92000FFF7E2FB08212000FFF764FCF0
:101DB000164C01212000FFF72DFB01212000FFF729
:101DC00045FB01212000FFF733FB114C01212000CE
:101DD000FFF720FB01212000FFF738FB0121200045
:101DE000FFF726FB0B4C01212000FFF713FB01211D
:101DF0002000FFF72BFB01212000FFF719FB13B098
:101E0000F0BDC04600040048204E0000002C0140F8
:101E10000004004000200040A4010020A086010032
:101E200000380140F055000000400140F8B55F4621
:101E300056464D464446F0B4194B1A68501C18607B
:101E4000184BDB7B002B3BD1174B1A8892B21749FA
:101E5000CA635A8892B28A639A8892B214494A63D2
:101E6000DA8892B20A649B889BB2FA22D20093422B
:101E700004D9FA2292000F4B5A6344E20A4B9B8822
:101E80009BB20D4A934207D9074B9B880B4A944655
:101E90006344084A536336E20022064B5A6332E237
:101EA00050010020A401002010000020002C01405F
:101EB00000040040002000401A04000018FCFFFF4E
:101EC000EC4A93889BB2EC490B64D3889BB2EB4AF3
:101ED00053630921FEF7AAF9002900D0E9E1E84C93
:101EE0000F262670E34D288880B2FEF779FCE5497D
:101EF000FEF7BAF9E449FEF7CBFAFEF79DF980B296
:101F00006070000A013407239B461840637807225B
:101F1000934318436070688880B2FEF761FCD9492A
:101F2000FEF7A2F9D849FEF7B3FAFEF785F980B2B9
:101F30001F230340DA00637859460B401343637054
:101F400040093F273F239A461840A378BB431843D4
:101F5000A070A88880B2FEF743FCCA49FEF784F956
:101F6000C949FEF795FAFEF767F980B203230340EB
:101F70009A01A37851460B401343A3708308E37082
:101F8000800A0123184023790122934318432071CA
:101F9000E88880B2FEF724FCBA49FEF765F9BA4931
:101FA000FEF776FAFEF748F980B27F2303405A0025
:101FB000237901210B4013432371C0090F231840DB
:101FC0006379B34318436071288980B2FEF708FC37
:101FD000AC49FEF749F9AC49FEF75AFAFEF72CF97D
:101FE00080B2330003401A0163790F210B40134381
:101FF000637100097F2399461840A3797F22934398
:102000001843A071688980B2FEF7EAFB9D49FEF78C
:102010002BF99D49FEF73CFAFEF70EF980B2012339
:102020000340DA01A37949460B401343A3714308E7
:10203000E371400A032398461840237A032293430E
:1020400018432072A88980B2FEF7CAFB8D49FEF7BB
:102050000BF98D49FEF71CFAFEF7EEF880B23B0053
:1020600003409A00237A41460B40134323728009B0
:102070001F231840637A1F22934318436072E88934
:1020800080B2FEF7ADFB7F49FEF7EEF87E49FEF722
:10209000FFF9FEF7D1F880B2072303405A01637AB3
:1020A0001F210B4013436372C008A072288A80B2BC
:1020B000FEF796FB7349FEF7D7F87349FEF7E8F988
:1020C000FEF7BAF880B2E072000A5B461840237B44
:1020D0000722934318432073688A80B2FEF780FB7F
:1020E0006849FEF7C1F86849FEF7D2F9FEF7A4F88F
:1020F00080B21F230340DA00237B59460B40134371
:102100002373400953461840637BBB4318436073F5
:10211000A88A80B2FEF764FB5A49FEF7A5F85A492F
:10212000FEF7B6F9FEF788F880B2032303409A0160
:10213000637B51460B40134363738308A373800A88
:1021400001231840E37B012293431843E073E88A9C
:1021500080B2FEF745FB4B49FEF786F84A49FEF789
:1021600097F9FEF769F880B27F2303405A00E37BBA
:1021700001210B401343E373C0090F231840237C54
:10218000B34318432074288B80B2FEF729FB3D49E6
:10219000FEF76AF83C49FEF77BF9FEF74DF880B28E
:1021A00006403301267C0F2216401E432674000988
:1021B0004B461840637C7032934318436074688BBD
:1021C00080B2FEF70DFB2F49FEF74EF82E49FEF7C1
:1021D0005FF9FEF731F880B201230340DA01637C36
:1021E00049460B40134363744308A374400A4346B3
:1021F0001840E37C032293431843E074A88B80B219
:10220000FEF7EEFA1F49FEF72FF81F49FEF740F9D7
:10221000FEF712F880B23B0003409A00E37C41468F
:102220000B401343E3748009203F0740207D1F23A8
:10223000984307432775154B1B78722B03D80D3332
:102240005B065B0D00E0124B07221A400C4851015F
:10225000427D1F2422400A434275DB0883750D4BE3
:102260001A682F2A01D9082100E00021022A13D977
:10227000042312E010000020000400400020004071
:1022800084010020CDCCCC3F0000B044A001002050
:10229000FF0700005801002000231E4A0B43D3759E
:1022A000002313761C4A13701C4A116880330B43B9
:1022B00013601B4B18681621FDF7B8FF00290BD0DF
:1022C00021E0184851000C5A1B1B9BB20C5A1648AF
:1022D00044520132D2B201E00022144B072AF0D955
:1022E000134A1278642A08D8910051184A00FA213A
:1022F00089008C46624492B201E0FA22D2000A4977
:102300000A829B1A4B823CBC90469946A246AB4639
:10231000F8BDC046840100204F0100200038014074
:10232000500100201000002070010020F055000036
:10233000A0010020F0B557464E464546E0B482B0B5
:1023400001256B461D7103275F7100269E710223D4
:102350009A466B465246DA71A02300939024E40516
:1023600069462000FEF720FE202323856033238565
:10237000783B9946009369462000FEF715FE0097CA
:102380000E4B984669461800FEF70EFE43461D8523
:1023900052461A856B461E715F719E7102236A4612
:1023A000D371009569462000FEF7FEFD4B46A36100
:1023B00002B01CBC90469946A246F0BD00140048ED
:1023C0009022D205202313851168104B0B408021E9
:1023D000C9010B431360002314E042B2002A04DA5F
:1023E00080219022D205916103E080219022D205C4
:1023F00011859022D205202191614000C0B2118543
:102400000133DBB2072BE8D97047C046FF3FFFFF1F
:102410009023DB0520221A8519680D4A0A401A60AC
:10242000002311E04000C0B29022D205202191612A
:10243000128A120602D501221043C0B22021902236
:10244000D20511850133DBB2072BEBD97047C046AB
:10245000FF3FFFFF10B50A4A53698C21C9030B43A4
:10246000536100F0ADFBFFF775FBFFF78DFAFFF747
:1024700061FF00F095F900F05BFA002010BDC04646
:102480000010024010B56848FFF7D0F94221012042
:10249000FFF790F900210220FFF78CF914210320A7
:1024A000FFF788F900210420FFF784F900210720B5
:1024B000FFF780F900210820FFF77CF900210920AF
:1024C000FFF778F900210A20FFF774F901210B20AA
:1024D000FFF770F921210C20FFF76CF905210D2081
:1024E000FFF768F900210E20FFF764F950210F2053
:1024F000FFF760F99E211020FFF75CF94B211120B6
:10250000FFF758F900211220FFF754F90221132098
:10251000FFF750F916211420FFF74CF92B21152055
:10252000FFF748F912211620FFF744F90021172080
:10253000FFF740F962211820FFF73CF980211920AC
:10254000FFF738F980211A20FFF734F900211B200A
:10255000FFF730F90A211C20FFF72CF932211D204A
:10256000FFF728F9C3211E20FFF724F90F211F20B0
:10257000FFF720F913212020FFF71CF9C3212120A8
:10258000FFF718F900212220FFF714F90021242079
:10259000FFF710F900212520FFF70CF93B21262039
:1025A000FFF708F900212720FFF704F91721282059
:1025B000FFF700F947212920FFF7FCF880212A20A6
:1025C000FFF7F8F803212B20FFF7F4F801212C2066
:1025D000FFF7F0F845212D20FFF7ECF818212E2009
:1025E000FFF7E8F800212F20FFF7E4F80121302061
:1025F000FFF7E0F80F213120FFF7DCF8012102207E
:10260000FFF7D8F80220FFF7E9F80028FAD12230C6
:10261000FFF7E4F813212420FFF7CCF80921252047
:10262000FFF7C8F810BDC0462AC57554F8B5A020FC
:10263000FFF7B6F8F020FFF7B3F800210F20FFF7FF
:10264000B9F8C020FFF7ACF84D4B1A684D4B1A6033
:102650000025002700269023DB051B8A9B0714D446
:10266000012E13D1464B1A68D11BFA239B009942C5
:102670000CD94549CB7B0133D80F1B1801242340CB
:102680001B1ACB731700002600E001263C4B1C6888
:10269000631BC82B02D9FFF779FA25009023DB05CD
:1026A0001B8ADB07D7D40020FFF798F8830606D5EE
:1026B000F020FFF775F8C020FFF772F8CBE7334C36
:1026C00005212000FFF798F82378AA2B28D12E4B5C
:1026D0002F4A1A60012252421A64002306E05A1C53
:1026E0002A49895C2848C3181971D3B2032BF6D93B
:1026F000264B5B780F2018401B0901330A2B00D9A9
:102700000A23002209E00101224C61188C5C1E4959
:102710008918E41A0C740132D2B20F2AF3D90AE0F4
:10272000F020FFF73DF800210F20FFF743F8C0200D
:10273000FFF736F88FE7FFF7A1F900240EE09023AA
:10274000DB058022D2019A61998A802292014A4057
:102750009A822D20FFF740F90134E4B24F2CEED9D4
:102760009023DB058022D2011A85802292011A85EE
:10277000BFF34F8F084A094BDA60BFF34F8FFEE774
:102780005C01002060010020A4010020280200203C
:102790004F4A424B300000200400FA0500ED00E0F3
:1027A00010B50023154A1360154A1370FFF758F847
:1027B000FFF7FEF8134B1870134C8022D200134918
:1027C000200000F0A1FAFFF703F80120FFF704F959
:1027D000FFF758FEE37B022B04D900220A4BDA7381
:1027E000FFF74CF9074B1B78002B04D1064B1A68F6
:1027F000074B9A4201D0FFF719FF10BD5801002086
:102800006501002054010020A4010020007C000884
:102810004F4A424B10B5144A13680124A343136076
:10282000124A1378C018107002E05B1A0F4A137036
:102830000E4B1B788B42F8D2A020FEF7B1FFF020A0
:10284000FEF7AEFF094B1B78094AD318197C0F20FD
:10285000FEF7B0FFC020FEF7A3FF034A1168012373
:102860000B43136010BDC046000401406501002009
:10287000A401002030B587B001210120FEF7C8FC7B
:1028800004A900250D718D7103234B71013BCB71A0
:10289000012404949020C005FEF786FB01A80523BF
:1028A000037044708470FEF7D3FB00210020FEF714
:1028B000E7FC02A8029405710C2343718471FEF7B2
:1028C00095FA07B030BDC04610B584B00121802014
:1028D0008002FEF79DFC144C2000FEF7E5FC15235A
:1028E0006A461370133B5370013B93706846FEF7C2
:1028F000AFFB01A90D4B4B602F230B8000230B81F5
:102900004B802000FEF74AFD01212000FEF7CEFE9D
:10291000012201212000FEF7BFFE01212000FEF769
:1029200087FD04B010BDC046004401407017000090
:1029300010B5FFF753F9FFF79DFFFFF7C5FF114BE8
:102940001A68114B1B68D31A0A2BF8D90F4B1B7846
:10295000022B04D10C4B1A60FFF7ACF8EFE70C4ADE
:102960001278FF2AEBD1002BE9D1FE3A074B1A70FF
:1029700008498B8993438B8107490B6893430B600C
:10298000FFF754FE5C01002060010020540100208C
:1029900064010020002000400004014070B50120C7
:1029A000FEF760FA002800D192E00122494B5A61FB
:1029B0009023DB051B8ADB0700D589E00020FEF7AA
:1029C0000DFF830606D5F020FEF7EAFEC020FEF7D5
:1029D000E7FE7DE01D20FEF701FF05003E4C1521BE
:1029E0002000FEF709FF2378552B71D13A4B5A7816
:1029F0003A4B1B799A426BD1374B9A78374B5B79BC
:102A00009A4265D1344BDA78344B9B799A425FD144
:102A1000314B1A79314BDB799A4259D19023DB053E
:102A2000802292019A618022D2011A8502222C4BC7
:102A30001A7000242B4B1C602B4B9A890120824377
:102A40009A812A4ADA625C62022252421A829A8986
:102A500002439A811021FFF7DDFE230022E01C00D3
:102A60005800421D1C4EB15CDA1C5200B25C1202CE
:102A7000521892B21E494252425A92B21D498A429B
:102A800003D9020008001A49505262001849525AEC
:102A900092B219498A4203D864001849144AA152D3
:102AA0000133DBB2072BDAD92800FDF799FE144970
:102AB000FDF7DAFB011C1348FDF7EAFCFDF7BCFB50
:102AC000C0B211490B7807225343C318DB100B70B7
:102AD00070BDC0460004014028020020A40100206F
:102AE0005401002058010020004401400E0600005F
:102AF000100000204D0800006A0300006B03000076
:102B00003333333F0000D842A001002010B5254BDD
:102B10001B8ADB0745D5234B9B89DB0741D5214B1E
:102B2000022252421A829A8901218A439A81002202
:102B30005A620F310120FFF76DFE1B4A1368013303
:102B400013607D2B27D9194B1B78002B03D1184A12
:102B5000137801331370134A164BD3629189012302
:102B60000B439BB293819023DB05802292011A854F
:102B70008022D2019A6100230AE01A00203252001A
:102B80000D498A18908859000C4A88520133DBB2EB
:102B9000072BF2D905E0034A918901230B439BB22D
:102BA000938110BD004401405801002054010020D1
:102BB00064010020C05D0000A4010020100000207E
:102BC00010B584B001218020C002FEF721FB144C17
:102BD0002000FEF769FB16236A461370133B5370FF
:102BE000023B93706846FEF733FA01A90D4B4B6028
:102BF0002F230B8000230B814B802000FEF7CEFBA0
:102C000001212000FEF752FD012201212000FEF7E4
:102C100043FD01212000FEF70BFC04B010BDC046AF
:102C200000480140E703000010B50C4B1B8ADB078E
:102C300013D50A4B9B89DB070FD502225242074B63
:102C40001A82074A136801331360064B1B78022B64
:102C500001D1FFF7EBF8FEF787FE10BD00480140F9
:102C60005C010020540100200D4885460D480E49A6
:102C70000E4A002302E0D458C4500433C4188C42D6
:102C8000F9D30B4A0B4C002301E013600432A2423B
:102C9000FBD3FDF775FF00F011F8FFF7DBFBFEE754
:102CA0000010002000000020300100207C2D0008D2
:102CB0003001002048020020FEE700000E4B70B5F6
:102CC00000251E000D4CE41AA410A54204D0AB0050
:102CD000F35898470135F8E700F020F8084B002535
:102CE0001E00084CE41AA410A54204D0AB00F3580F
:102CF00098470135F8E770BD742D0008742D000861
:102D0000742D0008782D0008002310B59A4203D0D6
:102D1000CC5CC4540133F9E710BD0000F8B5C046DF
:102D2000F8BC08BC9E467047F8B5C046F8BC08BC65
:042D30009E46704704
:102D340084030008E2020008E2020008E00200083E
:102D440076030008760300086C030008E00200081C
:102D5400760300086C03000876030008E00200080C
:102D64007C0300087C0300087C03000806040008B8
:042D7400E90000086A
:042D7800C10000088E
:102D7C000000000001020304010203040607080915
:102D8C00DC05DC05E803DC05DC05DC05DC05DC0525
:102D9C00DC05DC05DC05DC05DC05DC05DC05DC051F
:102DAC000A5A14641E6E287832823C8C469650A0C7
:102DBC00A05096468C3C823278286E1E64145A0AB7
:102DCC000A5A50A0146446961E6E3C8C28783282A7
:102DDC00823278288C3C6E1E96466414A0505A0A97
:102DEC0028780A5A50A014641E6E3C8C3282469687
:102DFC00964682328C3C6E1E6414A0505A0A782877
:102E0C0050A028780A5A1E6E3C8C32824696146466
:102E1C006414964682328C3C6E1E5A0A7828A05056
:102E2C0050A046963C8C28780A5A32821E6E146446
:102E3C0064146E1E82325A0A78288C3C9646A05036
:102E4C0046963C8C50A028780A5A1E6E3282146426
:102E5C00641482326E1E5A0A7828A0508C3C964616
:102E6C0046960A5A3C8C146450A028781E6E328206
:102E7C0082326E1E7828A05064148C3C5A0A9646F6
:102E8C0046960A5A50A03C8C28781E6E32821464E6
:102E9C00641482326E1E78288C3CA0505A0A9646D6
:0400000508002C695A
:00000001FF
